{
  "_format": "hh-sol-artifact-1",
  "contractName": "SVGNFT",
  "sourceName": "contracts/SVGNFT.sol",
  "abi": [
    {
      "inputs": [],
      "stateMutability": "nonpayable",
      "type": "constructor"
    },
    {
      "anonymous": false,
      "inputs": [
        {
          "indexed": true,
          "internalType": "address",
          "name": "owner",
          "type": "address"
        },
        {
          "indexed": true,
          "internalType": "address",
          "name": "approved",
          "type": "address"
        },
        {
          "indexed": true,
          "internalType": "uint256",
          "name": "tokenId",
          "type": "uint256"
        }
      ],
      "name": "Approval",
      "type": "event"
    },
    {
      "anonymous": false,
      "inputs": [
        {
          "indexed": true,
          "internalType": "address",
          "name": "owner",
          "type": "address"
        },
        {
          "indexed": true,
          "internalType": "address",
          "name": "operator",
          "type": "address"
        },
        {
          "indexed": false,
          "internalType": "bool",
          "name": "approved",
          "type": "bool"
        }
      ],
      "name": "ApprovalForAll",
      "type": "event"
    },
    {
      "anonymous": false,
      "inputs": [
        {
          "indexed": true,
          "internalType": "uint256",
          "name": "tokenId",
          "type": "uint256"
        },
        {
          "indexed": false,
          "internalType": "string",
          "name": "tokenURI",
          "type": "string"
        }
      ],
      "name": "CreatedSVGNFT",
      "type": "event"
    },
    {
      "anonymous": false,
      "inputs": [
        {
          "indexed": true,
          "internalType": "address",
          "name": "from",
          "type": "address"
        },
        {
          "indexed": true,
          "internalType": "address",
          "name": "to",
          "type": "address"
        },
        {
          "indexed": true,
          "internalType": "uint256",
          "name": "tokenId",
          "type": "uint256"
        }
      ],
      "name": "Transfer",
      "type": "event"
    },
    {
      "inputs": [
        {
          "internalType": "address",
          "name": "to",
          "type": "address"
        },
        {
          "internalType": "uint256",
          "name": "tokenId",
          "type": "uint256"
        }
      ],
      "name": "approve",
      "outputs": [],
      "stateMutability": "nonpayable",
      "type": "function"
    },
    {
      "inputs": [
        {
          "internalType": "address",
          "name": "owner",
          "type": "address"
        }
      ],
      "name": "balanceOf",
      "outputs": [
        {
          "internalType": "uint256",
          "name": "",
          "type": "uint256"
        }
      ],
      "stateMutability": "view",
      "type": "function"
    },
    {
      "inputs": [
        {
          "internalType": "string",
          "name": "_imgURI",
          "type": "string"
        }
      ],
      "name": "formatTokenURI",
      "outputs": [
        {
          "internalType": "string",
          "name": "_tokenURI",
          "type": "string"
        }
      ],
      "stateMutability": "pure",
      "type": "function"
    },
    {
      "inputs": [
        {
          "internalType": "uint256",
          "name": "tokenId",
          "type": "uint256"
        }
      ],
      "name": "getApproved",
      "outputs": [
        {
          "internalType": "address",
          "name": "",
          "type": "address"
        }
      ],
      "stateMutability": "view",
      "type": "function"
    },
    {
      "inputs": [
        {
          "internalType": "address",
          "name": "owner",
          "type": "address"
        },
        {
          "internalType": "address",
          "name": "operator",
          "type": "address"
        }
      ],
      "name": "isApprovedForAll",
      "outputs": [
        {
          "internalType": "bool",
          "name": "",
          "type": "bool"
        }
      ],
      "stateMutability": "view",
      "type": "function"
    },
    {
      "inputs": [
        {
          "internalType": "string",
          "name": "_svg",
          "type": "string"
        }
      ],
      "name": "mint",
      "outputs": [],
      "stateMutability": "nonpayable",
      "type": "function"
    },
    {
      "inputs": [],
      "name": "name",
      "outputs": [
        {
          "internalType": "string",
          "name": "",
          "type": "string"
        }
      ],
      "stateMutability": "view",
      "type": "function"
    },
    {
      "inputs": [
        {
          "internalType": "uint256",
          "name": "tokenId",
          "type": "uint256"
        }
      ],
      "name": "ownerOf",
      "outputs": [
        {
          "internalType": "address",
          "name": "",
          "type": "address"
        }
      ],
      "stateMutability": "view",
      "type": "function"
    },
    {
      "inputs": [
        {
          "internalType": "address",
          "name": "from",
          "type": "address"
        },
        {
          "internalType": "address",
          "name": "to",
          "type": "address"
        },
        {
          "internalType": "uint256",
          "name": "tokenId",
          "type": "uint256"
        }
      ],
      "name": "safeTransferFrom",
      "outputs": [],
      "stateMutability": "nonpayable",
      "type": "function"
    },
    {
      "inputs": [
        {
          "internalType": "address",
          "name": "from",
          "type": "address"
        },
        {
          "internalType": "address",
          "name": "to",
          "type": "address"
        },
        {
          "internalType": "uint256",
          "name": "tokenId",
          "type": "uint256"
        },
        {
          "internalType": "bytes",
          "name": "_data",
          "type": "bytes"
        }
      ],
      "name": "safeTransferFrom",
      "outputs": [],
      "stateMutability": "nonpayable",
      "type": "function"
    },
    {
      "inputs": [
        {
          "internalType": "address",
          "name": "operator",
          "type": "address"
        },
        {
          "internalType": "bool",
          "name": "approved",
          "type": "bool"
        }
      ],
      "name": "setApprovalForAll",
      "outputs": [],
      "stateMutability": "nonpayable",
      "type": "function"
    },
    {
      "inputs": [
        {
          "internalType": "bytes4",
          "name": "interfaceId",
          "type": "bytes4"
        }
      ],
      "name": "supportsInterface",
      "outputs": [
        {
          "internalType": "bool",
          "name": "",
          "type": "bool"
        }
      ],
      "stateMutability": "view",
      "type": "function"
    },
    {
      "inputs": [
        {
          "internalType": "string",
          "name": "svg",
          "type": "string"
        }
      ],
      "name": "svgToImageURI",
      "outputs": [
        {
          "internalType": "string",
          "name": "_imageURI",
          "type": "string"
        }
      ],
      "stateMutability": "pure",
      "type": "function"
    },
    {
      "inputs": [],
      "name": "symbol",
      "outputs": [
        {
          "internalType": "string",
          "name": "",
          "type": "string"
        }
      ],
      "stateMutability": "view",
      "type": "function"
    },
    {
      "inputs": [],
      "name": "tokenCounter",
      "outputs": [
        {
          "internalType": "uint256",
          "name": "",
          "type": "uint256"
        }
      ],
      "stateMutability": "view",
      "type": "function"
    },
    {
      "inputs": [
        {
          "internalType": "uint256",
          "name": "tokenId",
          "type": "uint256"
        }
      ],
      "name": "tokenURI",
      "outputs": [
        {
          "internalType": "string",
          "name": "",
          "type": "string"
        }
      ],
      "stateMutability": "view",
      "type": "function"
    },
    {
      "inputs": [
        {
          "internalType": "address",
          "name": "from",
          "type": "address"
        },
        {
          "internalType": "address",
          "name": "to",
          "type": "address"
        },
        {
          "internalType": "uint256",
          "name": "tokenId",
          "type": "uint256"
        }
      ],
      "name": "transferFrom",
      "outputs": [],
      "stateMutability": "nonpayable",
      "type": "function"
    }
  ],
  "bytecode": "0x60806040523480156200001157600080fd5b506040518060400160405280600681526020017f5356474e465400000000000000000000000000000000000000000000000000008152506040518060400160405280600681526020017f5356474e46540000000000000000000000000000000000000000000000000000815250816000908051906020019062000096929190620000c0565b508060019080519060200190620000af929190620000c0565b5050506000600781905550620001d5565b828054620000ce9062000170565b90600052602060002090601f016020900481019282620000f257600085556200013e565b82601f106200010d57805160ff19168380011785556200013e565b828001600101855582156200013e579182015b828111156200013d57825182559160200191906001019062000120565b5b5090506200014d919062000151565b5090565b5b808211156200016c57600081600090555060010162000152565b5090565b600060028204905060018216806200018957607f821691505b60208210811415620001a0576200019f620001a6565b5b50919050565b7f4e487b7100000000000000000000000000000000000000000000000000000000600052602260045260246000fd5b61322580620001e56000396000f3fe608060405234801561001057600080fd5b506004361061010b5760003560e01c806370a08231116100a2578063b88d4fde11610071578063b88d4fde146102dc578063c87b56dd146102f8578063d082e38114610328578063d85d3d2714610346578063e985e9c5146103625761010b565b806370a082311461024257806371aee1931461027257806395d89b41146102a2578063a22cb465146102c05761010b565b806323b872dd116100de57806323b872dd146101aa57806330d871c6146101c657806342842e0e146101f65780636352211e146102125761010b565b806301ffc9a71461011057806306fdde0314610140578063081812fc1461015e578063095ea7b31461018e575b600080fd5b61012a60048036038101906101259190611ff0565b610392565b604051610137919061254b565b60405180910390f35b610148610474565b6040516101559190612566565b60405180910390f35b61017860048036038101906101739190612083565b610506565b60405161018591906124e4565b60405180910390f35b6101a860048036038101906101a39190611fb4565b61058b565b005b6101c460048036038101906101bf9190611eae565b6106a3565b005b6101e060048036038101906101db9190612042565b610703565b6040516101ed9190612566565b60405180910390f35b610210600480360381019061020b9190611eae565b610796565b005b61022c60048036038101906102279190612083565b6107b6565b60405161023991906124e4565b60405180910390f35b61025c60048036038101906102579190611e49565b610868565b6040516102699190612788565b60405180910390f35b61028c60048036038101906102879190612042565b610920565b6040516102999190612566565b60405180910390f35b6102aa6109ad565b6040516102b79190612566565b60405180910390f35b6102da60048036038101906102d59190611f78565b610a3f565b005b6102f660048036038101906102f19190611efd565b610a55565b005b610312600480360381019061030d9190612083565b610ab7565b60405161031f9190612566565b60405180910390f35b610330610c09565b60405161033d9190612788565b60405180910390f35b610360600480360381019061035b9190612042565b610c0f565b005b61037c60048036038101906103779190611e72565b610c9f565b604051610389919061254b565b60405180910390f35b60007f80ac58cd000000000000000000000000000000000000000000000000000000007bffffffffffffffffffffffffffffffffffffffffffffffffffffffff1916827bffffffffffffffffffffffffffffffffffffffffffffffffffffffff1916148061045d57507f5b5e139f000000000000000000000000000000000000000000000000000000007bffffffffffffffffffffffffffffffffffffffffffffffffffffffff1916827bffffffffffffffffffffffffffffffffffffffffffffffffffffffff1916145b8061046d575061046c82610d33565b5b9050919050565b60606000805461048390612a38565b80601f01602080910402602001604051908101604052809291908181526020018280546104af90612a38565b80156104fc5780601f106104d1576101008083540402835291602001916104fc565b820191906000526020600020905b8154815290600101906020018083116104df57829003601f168201915b5050505050905090565b600061051182610d9d565b610550576040517f08c379a000000000000000000000000000000000000000000000000000000000815260040161054790612708565b60405180910390fd5b6004600083815260200190815260200160002060009054906101000a900473ffffffffffffffffffffffffffffffffffffffff169050919050565b6000610596826107b6565b90508073ffffffffffffffffffffffffffffffffffffffff168373ffffffffffffffffffffffffffffffffffffffff161415610607576040517f08c379a00000000000000000000000000000000000000000000000000000000081526004016105fe90612748565b60405180910390fd5b8073ffffffffffffffffffffffffffffffffffffffff16610626610e09565b73ffffffffffffffffffffffffffffffffffffffff16148061065557506106548161064f610e09565b610c9f565b5b610694576040517f08c379a000000000000000000000000000000000000000000000000000000000815260040161068b90612648565b60405180910390fd5b61069e8383610e11565b505050565b6106b46106ae610e09565b82610eca565b6106f3576040517f08c379a00000000000000000000000000000000000000000000000000000000081526004016106ea90612768565b60405180910390fd5b6106fe838383610fa8565b505050565b606060006040518060400160405280601a81526020017f646174613a696d6167652f7376672b786d6c3b6261736536342c0000000000008152509050600061076984604051602001610755919061245b565b60405160208183030381529060405261120f565b9050818160405160200161077e929190612472565b60405160208183030381529060405292505050919050565b6107b183838360405180602001604052806000815250610a55565b505050565b6000806002600084815260200190815260200160002060009054906101000a900473ffffffffffffffffffffffffffffffffffffffff169050600073ffffffffffffffffffffffffffffffffffffffff168173ffffffffffffffffffffffffffffffffffffffff16141561085f576040517f08c379a000000000000000000000000000000000000000000000000000000000815260040161085690612688565b60405180910390fd5b80915050919050565b60008073ffffffffffffffffffffffffffffffffffffffff168273ffffffffffffffffffffffffffffffffffffffff1614156108d9576040517f08c379a00000000000000000000000000000000000000000000000000000000081526004016108d090612668565b60405180910390fd5b600360008373ffffffffffffffffffffffffffffffffffffffff1673ffffffffffffffffffffffffffffffffffffffff168152602001908152602001600020549050919050565b606060006040518060400160405280601d81526020017f646174613a6170706c69636174696f6e2f6a736f6e3b6261736536342c000000815250905080610985846040516020016109719190612496565b60405160208183030381529060405261120f565b604051602001610996929190612472565b604051602081830303815290604052915050919050565b6060600180546109bc90612a38565b80601f01602080910402602001604051908101604052809291908181526020018280546109e890612a38565b8015610a355780601f10610a0a57610100808354040283529160200191610a35565b820191906000526020600020905b815481529060010190602001808311610a1857829003601f168201915b5050505050905090565b610a51610a4a610e09565b83836113ae565b5050565b610a66610a60610e09565b83610eca565b610aa5576040517f08c379a0000000000000000000000000000000000000000000000000000000008152600401610a9c90612768565b60405180910390fd5b610ab18484848461151b565b50505050565b6060610ac282610d9d565b610b01576040517f08c379a0000000000000000000000000000000000000000000000000000000008152600401610af8906126e8565b60405180910390fd5b6000600660008481526020019081526020016000208054610b2190612a38565b80601f0160208091040260200160405190810160405280929190818152602001828054610b4d90612a38565b8015610b9a5780601f10610b6f57610100808354040283529160200191610b9a565b820191906000526020600020905b815481529060010190602001808311610b7d57829003601f168201915b505050505090506000610bab611577565b9050600081511415610bc1578192505050610c04565b600082511115610bf6578082604051602001610bde929190612472565b60405160208183030381529060405292505050610c04565b610bff8461158e565b925050505b919050565b60075481565b610c1b33600754611635565b6000610c2682610703565b90506000610c3382610920565b9050610c4160075482611653565b6007547ff5acc616aa8ecd00e5d76674d7812f9c3c3571d662c9fba4499deefa6d0be12d82604051610c739190612566565b60405180910390a2600160076000828254610c8e919061286d565b925050819055600781905550505050565b6000600560008473ffffffffffffffffffffffffffffffffffffffff1673ffffffffffffffffffffffffffffffffffffffff16815260200190815260200160002060008373ffffffffffffffffffffffffffffffffffffffff1673ffffffffffffffffffffffffffffffffffffffff16815260200190815260200160002060009054906101000a900460ff16905092915050565b60007f01ffc9a7000000000000000000000000000000000000000000000000000000007bffffffffffffffffffffffffffffffffffffffffffffffffffffffff1916827bffffffffffffffffffffffffffffffffffffffffffffffffffffffff1916149050919050565b60008073ffffffffffffffffffffffffffffffffffffffff166002600084815260200190815260200160002060009054906101000a900473ffffffffffffffffffffffffffffffffffffffff1673ffffffffffffffffffffffffffffffffffffffff1614159050919050565b600033905090565b816004600083815260200190815260200160002060006101000a81548173ffffffffffffffffffffffffffffffffffffffff021916908373ffffffffffffffffffffffffffffffffffffffff160217905550808273ffffffffffffffffffffffffffffffffffffffff16610e84836107b6565b73ffffffffffffffffffffffffffffffffffffffff167f8c5be1e5ebec7d5bd14f71427d1e84f3dd0314c0f7b2291e5b200ac8c7c3b92560405160405180910390a45050565b6000610ed582610d9d565b610f14576040517f08c379a0000000000000000000000000000000000000000000000000000000008152600401610f0b90612628565b60405180910390fd5b6000610f1f836107b6565b90508073ffffffffffffffffffffffffffffffffffffffff168473ffffffffffffffffffffffffffffffffffffffff161480610f8e57508373ffffffffffffffffffffffffffffffffffffffff16610f7684610506565b73ffffffffffffffffffffffffffffffffffffffff16145b80610f9f5750610f9e8185610c9f565b5b91505092915050565b8273ffffffffffffffffffffffffffffffffffffffff16610fc8826107b6565b73ffffffffffffffffffffffffffffffffffffffff161461101e576040517f08c379a0000000000000000000000000000000000000000000000000000000008152600401611015906125a8565b60405180910390fd5b600073ffffffffffffffffffffffffffffffffffffffff168273ffffffffffffffffffffffffffffffffffffffff16141561108e576040517f08c379a0000000000000000000000000000000000000000000000000000000008152600401611085906125e8565b60405180910390fd5b6110998383836116c7565b6110a4600082610e11565b6001600360008573ffffffffffffffffffffffffffffffffffffffff1673ffffffffffffffffffffffffffffffffffffffff16815260200190815260200160002060008282546110f4919061294e565b925050819055506001600360008473ffffffffffffffffffffffffffffffffffffffff1673ffffffffffffffffffffffffffffffffffffffff168152602001908152602001600020600082825461114b919061286d565b92505081905550816002600083815260200190815260200160002060006101000a81548173ffffffffffffffffffffffffffffffffffffffff021916908373ffffffffffffffffffffffffffffffffffffffff160217905550808273ffffffffffffffffffffffffffffffffffffffff168473ffffffffffffffffffffffffffffffffffffffff167fddf252ad1be2c89b69c2b068fc378daa952ba7f163c4a11628f55a4df523b3ef60405160405180910390a461120a8383836116cc565b505050565b6060600082511415611232576040518060200160405280600081525090506113a9565b60006040518060600160405280604081526020016131b06040913990506000600360028551611261919061286d565b61126b91906128c3565b600461127791906128f4565b90506000602082611288919061286d565b67ffffffffffffffff8111156112c7577f4e487b7100000000000000000000000000000000000000000000000000000000600052604160045260246000fd5b6040519080825280601f01601f1916602001820160405280156112f95781602001600182028036833780820191505090505b509050818152600183018586518101602084015b81831015611368576003830192508251603f8160121c168501518253600182019150603f81600c1c168501518253600182019150603f8160061c168501518253600182019150603f811685015182536001820191505061130d565b60038951066001811461138257600281146113925761139d565b613d3d60f01b600283035261139d565b603d60f81b60018303525b50505050508093505050505b919050565b8173ffffffffffffffffffffffffffffffffffffffff168373ffffffffffffffffffffffffffffffffffffffff16141561141d576040517f08c379a000000000000000000000000000000000000000000000000000000000815260040161141490612608565b60405180910390fd5b80600560008573ffffffffffffffffffffffffffffffffffffffff1673ffffffffffffffffffffffffffffffffffffffff16815260200190815260200160002060008473ffffffffffffffffffffffffffffffffffffffff1673ffffffffffffffffffffffffffffffffffffffff16815260200190815260200160002060006101000a81548160ff0219169083151502179055508173ffffffffffffffffffffffffffffffffffffffff168373ffffffffffffffffffffffffffffffffffffffff167f17307eab39ab6107e8899845ad3d59bd9653f200f220920489ca2b5937696c318360405161150e919061254b565b60405180910390a3505050565b611526848484610fa8565b611532848484846116d1565b611571576040517f08c379a000000000000000000000000000000000000000000000000000000000815260040161156890612588565b60405180910390fd5b50505050565b606060405180602001604052806000815250905090565b606061159982610d9d565b6115d8576040517f08c379a00000000000000000000000000000000000000000000000000000000081526004016115cf90612728565b60405180910390fd5b60006115e2611577565b90506000815111611602576040518060200160405280600081525061162d565b8061160c84611868565b60405160200161161d929190612472565b6040516020818303038152906040525b915050919050565b61164f828260405180602001604052806000815250611a15565b5050565b61165c82610d9d565b61169b576040517f08c379a0000000000000000000000000000000000000000000000000000000008152600401611692906126a8565b60405180910390fd5b806006600084815260200190815260200160002090805190602001906116c2929190611c6d565b505050565b505050565b505050565b60006116f28473ffffffffffffffffffffffffffffffffffffffff16611a70565b1561185b578373ffffffffffffffffffffffffffffffffffffffff1663150b7a0261171b610e09565b8786866040518563ffffffff1660e01b815260040161173d94939291906124ff565b602060405180830381600087803b15801561175757600080fd5b505af192505050801561178857506040513d601f19601f820116820180604052508101906117859190612019565b60015b61180b573d80600081146117b8576040519150601f19603f3d011682016040523d82523d6000602084013e6117bd565b606091505b50600081511415611803576040517f08c379a00000000000000000000000000000000000000000000000000000000081526004016117fa90612588565b60405180910390fd5b805181602001fd5b63150b7a0260e01b7bffffffffffffffffffffffffffffffffffffffffffffffffffffffff1916817bffffffffffffffffffffffffffffffffffffffffffffffffffffffff191614915050611860565b600190505b949350505050565b606060008214156118b0576040518060400160405280600181526020017f30000000000000000000000000000000000000000000000000000000000000008152509050611a10565b600082905060005b600082146118e25780806118cb90612a9b565b915050600a826118db91906128c3565b91506118b8565b60008167ffffffffffffffff811115611924577f4e487b7100000000000000000000000000000000000000000000000000000000600052604160045260246000fd5b6040519080825280601f01601f1916602001820160405280156119565781602001600182028036833780820191505090505b5090505b60008514611a095760018261196f919061294e565b9150600a8561197e9190612ae4565b603061198a919061286d565b60f81b8183815181106119c6577f4e487b7100000000000000000000000000000000000000000000000000000000600052603260045260246000fd5b60200101907effffffffffffffffffffffffffffffffffffffffffffffffffffffffffffff1916908160001a905350600a85611a0291906128c3565b945061195a565b8093505050505b919050565b611a1f8383611a93565b611a2c60008484846116d1565b611a6b576040517f08c379a0000000000000000000000000000000000000000000000000000000008152600401611a6290612588565b60405180910390fd5b505050565b6000808273ffffffffffffffffffffffffffffffffffffffff163b119050919050565b600073ffffffffffffffffffffffffffffffffffffffff168273ffffffffffffffffffffffffffffffffffffffff161415611b03576040517f08c379a0000000000000000000000000000000000000000000000000000000008152600401611afa906126c8565b60405180910390fd5b611b0c81610d9d565b15611b4c576040517f08c379a0000000000000000000000000000000000000000000000000000000008152600401611b43906125c8565b60405180910390fd5b611b58600083836116c7565b6001600360008473ffffffffffffffffffffffffffffffffffffffff1673ffffffffffffffffffffffffffffffffffffffff1681526020019081526020016000206000828254611ba8919061286d565b92505081905550816002600083815260200190815260200160002060006101000a81548173ffffffffffffffffffffffffffffffffffffffff021916908373ffffffffffffffffffffffffffffffffffffffff160217905550808273ffffffffffffffffffffffffffffffffffffffff16600073ffffffffffffffffffffffffffffffffffffffff167fddf252ad1be2c89b69c2b068fc378daa952ba7f163c4a11628f55a4df523b3ef60405160405180910390a4611c69600083836116cc565b5050565b828054611c7990612a38565b90600052602060002090601f016020900481019282611c9b5760008555611ce2565b82601f10611cb457805160ff1916838001178555611ce2565b82800160010185558215611ce2579182015b82811115611ce1578251825591602001919060010190611cc6565b5b509050611cef9190611cf3565b5090565b5b80821115611d0c576000816000905550600101611cf4565b5090565b6000611d23611d1e846127c8565b6127a3565b905082815260208101848484011115611d3b57600080fd5b611d468482856129f6565b509392505050565b6000611d61611d5c846127f9565b6127a3565b905082815260208101848484011115611d7957600080fd5b611d848482856129f6565b509392505050565b600081359050611d9b81613153565b92915050565b600081359050611db08161316a565b92915050565b600081359050611dc581613181565b92915050565b600081519050611dda81613181565b92915050565b600082601f830112611df157600080fd5b8135611e01848260208601611d10565b91505092915050565b600082601f830112611e1b57600080fd5b8135611e2b848260208601611d4e565b91505092915050565b600081359050611e4381613198565b92915050565b600060208284031215611e5b57600080fd5b6000611e6984828501611d8c565b91505092915050565b60008060408385031215611e8557600080fd5b6000611e9385828601611d8c565b9250506020611ea485828601611d8c565b9150509250929050565b600080600060608486031215611ec357600080fd5b6000611ed186828701611d8c565b9350506020611ee286828701611d8c565b9250506040611ef386828701611e34565b9150509250925092565b60008060008060808587031215611f1357600080fd5b6000611f2187828801611d8c565b9450506020611f3287828801611d8c565b9350506040611f4387828801611e34565b925050606085013567ffffffffffffffff811115611f6057600080fd5b611f6c87828801611de0565b91505092959194509250565b60008060408385031215611f8b57600080fd5b6000611f9985828601611d8c565b9250506020611faa85828601611da1565b9150509250929050565b60008060408385031215611fc757600080fd5b6000611fd585828601611d8c565b9250506020611fe685828601611e34565b9150509250929050565b60006020828403121561200257600080fd5b600061201084828501611db6565b91505092915050565b60006020828403121561202b57600080fd5b600061203984828501611dcb565b91505092915050565b60006020828403121561205457600080fd5b600082013567ffffffffffffffff81111561206e57600080fd5b61207a84828501611e0a565b91505092915050565b60006020828403121561209557600080fd5b60006120a384828501611e34565b91505092915050565b6120b581612982565b82525050565b6120c481612994565b82525050565b60006120d58261282a565b6120df8185612840565b93506120ef818560208601612a05565b6120f881612bd1565b840191505092915050565b600061210e82612835565b6121188185612851565b9350612128818560208601612a05565b61213181612bd1565b840191505092915050565b600061214782612835565b6121518185612862565b9350612161818560208601612a05565b80840191505092915050565b600061217a603283612851565b915061218582612be2565b604082019050919050565b600061219d602583612851565b91506121a882612c31565b604082019050919050565b60006121c0601c83612851565b91506121cb82612c80565b602082019050919050565b60006121e3602483612851565b91506121ee82612ca9565b604082019050919050565b6000612206601983612851565b915061221182612cf8565b602082019050919050565b6000612229601183612862565b915061223482612d21565b601182019050919050565b600061224c602c83612851565b915061225782612d4a565b604082019050919050565b600061226f600f83612862565b915061227a82612d99565b600f82019050919050565b6000612292603883612851565b915061229d82612dc2565b604082019050919050565b60006122b5602a83612851565b91506122c082612e11565b604082019050919050565b60006122d8602983612851565b91506122e382612e60565b604082019050919050565b60006122fb602e83612851565b915061230682612eaf565b604082019050919050565b600061231e600983612862565b915061232982612efe565b600982019050919050565b6000612341600283612862565b915061234c82612f27565b600282019050919050565b6000612364602083612851565b915061236f82612f50565b602082019050919050565b6000612387603183612851565b915061239282612f79565b604082019050919050565b60006123aa602c83612851565b91506123b582612fc8565b604082019050919050565b60006123cd602f83612851565b91506123d882613017565b604082019050919050565b60006123f0602183612851565b91506123fb82613066565b604082019050919050565b6000612413603183612851565b915061241e826130b5565b604082019050919050565b6000612436602483612862565b915061244182613104565b602482019050919050565b612455816129ec565b82525050565b6000612467828461213c565b915081905092915050565b600061247e828561213c565b915061248a828461213c565b91508190509392505050565b60006124a18261221c565b91506124ac82612429565b91506124b782612262565b91506124c282612311565b91506124ce828461213c565b91506124d982612334565b915081905092915050565b60006020820190506124f960008301846120ac565b92915050565b600060808201905061251460008301876120ac565b61252160208301866120ac565b61252e604083018561244c565b818103606083015261254081846120ca565b905095945050505050565b600060208201905061256060008301846120bb565b92915050565b600060208201905081810360008301526125808184612103565b905092915050565b600060208201905081810360008301526125a18161216d565b9050919050565b600060208201905081810360008301526125c181612190565b9050919050565b600060208201905081810360008301526125e1816121b3565b9050919050565b60006020820190508181036000830152612601816121d6565b9050919050565b60006020820190508181036000830152612621816121f9565b9050919050565b600060208201905081810360008301526126418161223f565b9050919050565b6000602082019050818103600083015261266181612285565b9050919050565b60006020820190508181036000830152612681816122a8565b9050919050565b600060208201905081810360008301526126a1816122cb565b9050919050565b600060208201905081810360008301526126c1816122ee565b9050919050565b600060208201905081810360008301526126e181612357565b9050919050565b600060208201905081810360008301526127018161237a565b9050919050565b600060208201905081810360008301526127218161239d565b9050919050565b60006020820190508181036000830152612741816123c0565b9050919050565b60006020820190508181036000830152612761816123e3565b9050919050565b6000602082019050818103600083015261278181612406565b9050919050565b600060208201905061279d600083018461244c565b92915050565b60006127ad6127be565b90506127b98282612a6a565b919050565b6000604051905090565b600067ffffffffffffffff8211156127e3576127e2612ba2565b5b6127ec82612bd1565b9050602081019050919050565b600067ffffffffffffffff82111561281457612813612ba2565b5b61281d82612bd1565b9050602081019050919050565b600081519050919050565b600081519050919050565b600082825260208201905092915050565b600082825260208201905092915050565b600081905092915050565b6000612878826129ec565b9150612883836129ec565b9250827fffffffffffffffffffffffffffffffffffffffffffffffffffffffffffffffff038211156128b8576128b7612b15565b5b828201905092915050565b60006128ce826129ec565b91506128d9836129ec565b9250826128e9576128e8612b44565b5b828204905092915050565b60006128ff826129ec565b915061290a836129ec565b9250817fffffffffffffffffffffffffffffffffffffffffffffffffffffffffffffffff048311821515161561294357612942612b15565b5b828202905092915050565b6000612959826129ec565b9150612964836129ec565b92508282101561297757612976612b15565b5b828203905092915050565b600061298d826129cc565b9050919050565b60008115159050919050565b60007fffffffff0000000000000000000000000000000000000000000000000000000082169050919050565b600073ffffffffffffffffffffffffffffffffffffffff82169050919050565b6000819050919050565b82818337600083830152505050565b60005b83811015612a23578082015181840152602081019050612a08565b83811115612a32576000848401525b50505050565b60006002820490506001821680612a5057607f821691505b60208210811415612a6457612a63612b73565b5b50919050565b612a7382612bd1565b810181811067ffffffffffffffff82111715612a9257612a91612ba2565b5b80604052505050565b6000612aa6826129ec565b91507fffffffffffffffffffffffffffffffffffffffffffffffffffffffffffffffff821415612ad957612ad8612b15565b5b600182019050919050565b6000612aef826129ec565b9150612afa836129ec565b925082612b0a57612b09612b44565b5b828206905092915050565b7f4e487b7100000000000000000000000000000000000000000000000000000000600052601160045260246000fd5b7f4e487b7100000000000000000000000000000000000000000000000000000000600052601260045260246000fd5b7f4e487b7100000000000000000000000000000000000000000000000000000000600052602260045260246000fd5b7f4e487b7100000000000000000000000000000000000000000000000000000000600052604160045260246000fd5b6000601f19601f8301169050919050565b7f4552433732313a207472616e7366657220746f206e6f6e20455243373231526560008201527f63656976657220696d706c656d656e7465720000000000000000000000000000602082015250565b7f4552433732313a207472616e736665722066726f6d20696e636f72726563742060008201527f6f776e6572000000000000000000000000000000000000000000000000000000602082015250565b7f4552433732313a20746f6b656e20616c7265616479206d696e74656400000000600082015250565b7f4552433732313a207472616e7366657220746f20746865207a65726f2061646460008201527f7265737300000000000000000000000000000000000000000000000000000000602082015250565b7f4552433732313a20617070726f766520746f2063616c6c657200000000000000600082015250565b7f7b226e616d65223a22535647204e465422000000000000000000000000000000600082015250565b7f4552433732313a206f70657261746f7220717565727920666f72206e6f6e657860008201527f697374656e7420746f6b656e0000000000000000000000000000000000000000602082015250565b7f2261747472696275746573223a22220000000000000000000000000000000000600082015250565b7f4552433732313a20617070726f76652063616c6c6572206973206e6f74206f7760008201527f6e6572206e6f7220617070726f76656420666f7220616c6c0000000000000000602082015250565b7f4552433732313a2062616c616e636520717565727920666f7220746865207a6560008201527f726f206164647265737300000000000000000000000000000000000000000000602082015250565b7f4552433732313a206f776e657220717565727920666f72206e6f6e657869737460008201527f656e7420746f6b656e0000000000000000000000000000000000000000000000602082015250565b7f45524337323155524953746f726167653a2055524920736574206f66206e6f6e60008201527f6578697374656e7420746f6b656e000000000000000000000000000000000000602082015250565b7f22696d616765223a220000000000000000000000000000000000000000000000600082015250565b7f227d000000000000000000000000000000000000000000000000000000000000600082015250565b7f4552433732313a206d696e7420746f20746865207a65726f2061646472657373600082015250565b7f45524337323155524953746f726167653a2055524920717565727920666f722060008201527f6e6f6e6578697374656e7420746f6b656e000000000000000000000000000000602082015250565b7f4552433732313a20617070726f76656420717565727920666f72206e6f6e657860008201527f697374656e7420746f6b656e0000000000000000000000000000000000000000602082015250565b7f4552433732314d657461646174613a2055524920717565727920666f72206e6f60008201527f6e6578697374656e7420746f6b656e0000000000000000000000000000000000602082015250565b7f4552433732313a20617070726f76616c20746f2063757272656e74206f776e6560008201527f7200000000000000000000000000000000000000000000000000000000000000602082015250565b7f4552433732313a207472616e736665722063616c6c6572206973206e6f74206f60008201527f776e6572206e6f7220617070726f766564000000000000000000000000000000602082015250565b7f226465736372697074696f6e223a22416e204e4654206261736564206f6e205360008201527f5647212200000000000000000000000000000000000000000000000000000000602082015250565b61315c81612982565b811461316757600080fd5b50565b61317381612994565b811461317e57600080fd5b50565b61318a816129a0565b811461319557600080fd5b50565b6131a1816129ec565b81146131ac57600080fd5b5056fe4142434445464748494a4b4c4d4e4f505152535455565758595a6162636465666768696a6b6c6d6e6f707172737475767778797a303132333435363738392b2fa2646970667358221220e2c2125ea46addf2ee483d7af2f23d24ca370cade7115a5aebb5f2b555c39da464736f6c63430008010033",
  "linkReferences": {},
  "deployedLinkReferences": {}
}